{
  "_format": "hh-sol-artifact-1",
  "contractName": "Raffle",
  "sourceName": "contracts/Raffle.sol",
  "abi": [
    {
      "inputs": [
        {
          "internalType": "address",
          "name": "vrfCoordinatorV2",
          "type": "address"
        },
        {
          "internalType": "uint256",
          "name": "entranceFee",
          "type": "uint256"
        },
        {
          "internalType": "bytes32",
          "name": "keyHash",
          "type": "bytes32"
        },
        {
          "internalType": "uint64",
          "name": "subscriptionId",
          "type": "uint64"
        },
        {
          "internalType": "uint32",
          "name": "callbackLimit",
          "type": "uint32"
        },
        {
          "internalType": "uint256",
          "name": "interval",
          "type": "uint256"
        }
      ],
      "stateMutability": "nonpayable",
      "type": "constructor"
    },
    {
      "inputs": [
        {
          "internalType": "address",
          "name": "have",
          "type": "address"
        },
        {
          "internalType": "address",
          "name": "want",
          "type": "address"
        }
      ],
      "name": "OnlyCoordinatorCanFulfill",
      "type": "error"
    },
    {
      "inputs": [],
      "name": "RaffleState__NotOpen",
      "type": "error"
    },
    {
      "inputs": [],
      "name": "Raffle__NotEnoughETHEntered",
      "type": "error"
    },
    {
      "inputs": [],
      "name": "Raffle__TransferFailed",
      "type": "error"
    },
    {
      "inputs": [
        {
          "internalType": "uint256",
          "name": "balance",
          "type": "uint256"
        },
        {
          "internalType": "uint256",
          "name": "numPlayers",
          "type": "uint256"
        },
        {
          "internalType": "uint256",
          "name": "RaffleState",
          "type": "uint256"
        }
      ],
      "name": "Raffle__UpkeepNotNeeded",
      "type": "error"
    },
    {
      "anonymous": false,
      "inputs": [
        {
          "indexed": false,
          "internalType": "address",
          "name": "",
          "type": "address"
        }
      ],
      "name": "RaffleEnter",
      "type": "event"
    },
    {
      "anonymous": false,
      "inputs": [
        {
          "indexed": true,
          "internalType": "uint256",
          "name": "requestId",
          "type": "uint256"
        }
      ],
      "name": "RequestedRaffle",
      "type": "event"
    },
    {
      "anonymous": false,
      "inputs": [
        {
          "indexed": true,
          "internalType": "address",
          "name": "winner",
          "type": "address"
        }
      ],
      "name": "WinnerPicked",
      "type": "event"
    },
    {
      "inputs": [
        {
          "internalType": "bytes",
          "name": "",
          "type": "bytes"
        }
      ],
      "name": "checkUpkeep",
      "outputs": [
        {
          "internalType": "bool",
          "name": "upkeepNeeded",
          "type": "bool"
        },
        {
          "internalType": "bytes",
          "name": "",
          "type": "bytes"
        }
      ],
      "stateMutability": "nonpayable",
      "type": "function"
    },
    {
      "inputs": [],
      "name": "enterRaffle",
      "outputs": [],
      "stateMutability": "payable",
      "type": "function"
    },
    {
      "inputs": [],
      "name": "getEntranceFee",
      "outputs": [
        {
          "internalType": "uint256",
          "name": "",
          "type": "uint256"
        }
      ],
      "stateMutability": "view",
      "type": "function"
    },
    {
      "inputs": [],
      "name": "getInterval",
      "outputs": [
        {
          "internalType": "uint256",
          "name": "",
          "type": "uint256"
        }
      ],
      "stateMutability": "view",
      "type": "function"
    },
    {
      "inputs": [],
      "name": "getLatestTimeStamp",
      "outputs": [
        {
          "internalType": "uint256",
          "name": "",
          "type": "uint256"
        }
      ],
      "stateMutability": "view",
      "type": "function"
    },
    {
      "inputs": [],
      "name": "getNumOfPlayers",
      "outputs": [
        {
          "internalType": "uint256",
          "name": "",
          "type": "uint256"
        }
      ],
      "stateMutability": "view",
      "type": "function"
    },
    {
      "inputs": [],
      "name": "getNumOfWords",
      "outputs": [
        {
          "internalType": "uint256",
          "name": "",
          "type": "uint256"
        }
      ],
      "stateMutability": "pure",
      "type": "function"
    },
    {
      "inputs": [
        {
          "internalType": "uint256",
          "name": "index",
          "type": "uint256"
        }
      ],
      "name": "getPlayers",
      "outputs": [
        {
          "internalType": "address",
          "name": "",
          "type": "address"
        }
      ],
      "stateMutability": "view",
      "type": "function"
    },
    {
      "inputs": [],
      "name": "getRaffleState",
      "outputs": [
        {
          "internalType": "enum Raffle.RaffleState",
          "name": "",
          "type": "uint8"
        }
      ],
      "stateMutability": "view",
      "type": "function"
    },
    {
      "inputs": [],
      "name": "getRecentWinner",
      "outputs": [
        {
          "internalType": "address",
          "name": "",
          "type": "address"
        }
      ],
      "stateMutability": "view",
      "type": "function"
    },
    {
      "inputs": [],
      "name": "getRequestConfirmation",
      "outputs": [
        {
          "internalType": "uint256",
          "name": "",
          "type": "uint256"
        }
      ],
      "stateMutability": "pure",
      "type": "function"
    },
    {
      "inputs": [
        {
          "internalType": "bytes",
          "name": "",
          "type": "bytes"
        }
      ],
      "name": "performUpkeep",
      "outputs": [],
      "stateMutability": "nonpayable",
      "type": "function"
    },
    {
      "inputs": [
        {
          "internalType": "uint256",
          "name": "requestId",
          "type": "uint256"
        },
        {
          "internalType": "uint256[]",
          "name": "randomWords",
          "type": "uint256[]"
        }
      ],
      "name": "rawFulfillRandomWords",
      "outputs": [],
      "stateMutability": "nonpayable",
      "type": "function"
    }
  ],
  "bytecode": "0x6101606040523480156200001257600080fd5b506040516200182e3803806200182e8339818101604052810190620000389190620001ad565b858073ffffffffffffffffffffffffffffffffffffffff1660808173ffffffffffffffffffffffffffffffffffffffff1660601b81525050508460a081815250508573ffffffffffffffffffffffffffffffffffffffff1660c08173ffffffffffffffffffffffffffffffffffffffff1660601b815250508360e081815250508267ffffffffffffffff166101008167ffffffffffffffff1660c01b815250508163ffffffff166101208163ffffffff1660e01b815250506000600160146101000a81548160ff02191690836001811115620001195762000118620002b5565b5b0217905550426002819055508061014081815250505050505050506200036b565b6000815190506200014b81620002e9565b92915050565b600081519050620001628162000303565b92915050565b60008151905062000179816200031d565b92915050565b600081519050620001908162000337565b92915050565b600081519050620001a78162000351565b92915050565b60008060008060008060c08789031215620001cd57620001cc620002e4565b5b6000620001dd89828a016200013a565b9650506020620001f089828a0162000168565b95505060406200020389828a0162000151565b94505060606200021689828a0162000196565b93505060806200022989828a016200017f565b92505060a06200023c89828a0162000168565b9150509295509295509295565b6000620002568262000267565b9050919050565b6000819050919050565b600073ffffffffffffffffffffffffffffffffffffffff82169050919050565b6000819050919050565b600063ffffffff82169050919050565b600067ffffffffffffffff82169050919050565b7f4e487b7100000000000000000000000000000000000000000000000000000000600052602160045260246000fd5b600080fd5b620002f48162000249565b81146200030057600080fd5b50565b6200030e816200025d565b81146200031a57600080fd5b50565b620003288162000287565b81146200033457600080fd5b50565b620003428162000291565b81146200034e57600080fd5b50565b6200035c81620002a1565b81146200036857600080fd5b50565b60805160601c60a05160c05160601c60e0516101005160c01c6101205160e01c61014051611447620003e7600039600081816108210152610890015260006106990152600061067601526000610655015260006106190152600081816102fa01526103f7015260008181610337015261038b01526114476000f3fe6080604052600436106100c25760003560e01c8063460e20491161007f5780636e04ff0d116100595780636e04ff0d1461023757806391ad27b414610275578063ca6a9ef8146102a0578063d5eceb71146102cb576100c2565b8063460e2049146101a4578063473f1ddc146101e1578063565429de1461020c576100c2565b806309bc33a7146100c7578063115cbaf5146100f25780631fe543e31461011d5780632cfcc53914610146578063320229eb146101505780634585e33b1461017b575b600080fd5b3480156100d357600080fd5b506100dc6102f6565b6040516100e9919061104d565b60405180910390f35b3480156100fe57600080fd5b5061010761031e565b6040516101149190611032565b60405180910390f35b34801561012957600080fd5b50610144600480360381019061013f9190610e26565b610335565b005b61014e6103f5565b005b34801561015c57600080fd5b50610165610558565b604051610172919061104d565b60405180910390f35b34801561018757600080fd5b506101a2600480360381019061019d9190610d36565b610562565b005b3480156101b057600080fd5b506101cb60048036038101906101c69190610dcc565b610761565b6040516101d89190610f6b565b60405180910390f35b3480156101ed57600080fd5b506101f66107a8565b6040516102039190610f6b565b60405180910390f35b34801561021857600080fd5b506102216107d2565b60405161022e919061104d565b60405180910390f35b34801561024357600080fd5b5061025e60048036038101906102599190610d83565b6107de565b60405161026c929190610faf565b60405180910390f35b34801561028157600080fd5b5061028a61088c565b604051610297919061104d565b60405180910390f35b3480156102ac57600080fd5b506102b56108b4565b6040516102c2919061104d565b60405180910390f35b3480156102d757600080fd5b506102e06108c1565b6040516102ed919061104d565b60405180910390f35b60007f0000000000000000000000000000000000000000000000000000000000000000905090565b6000600160149054906101000a900460ff16905090565b7f000000000000000000000000000000000000000000000000000000000000000073ffffffffffffffffffffffffffffffffffffffff163373ffffffffffffffffffffffffffffffffffffffff16146103e757337f00000000000000000000000000000000000000000000000000000000000000006040517f1cf993f40000000000000000000000000000000000000000000000000000000081526004016103de929190610f86565b60405180910390fd5b6103f182826108d0565b5050565b7f000000000000000000000000000000000000000000000000000000000000000034101561044f576040517fbd4e069500000000000000000000000000000000000000000000000000000000815260040160405180910390fd5b6000600181111561046357610462611327565b5b600160149054906101000a900460ff16600181111561048557610484611327565b5b146104bc576040517f12a4f8b800000000000000000000000000000000000000000000000000000000815260040160405180910390fd5b6000339080600181540180825580915050600190039060005260206000200160009091909190916101000a81548173ffffffffffffffffffffffffffffffffffffffff021916908373ffffffffffffffffffffffffffffffffffffffff1602179055507f0805e1d667bddb8a95f0f09880cf94f403fb596ce79928d9f29b74203ba284d43360405161054e9190610f6b565b60405180910390a1565b6000600254905090565b600061057c604051806020016040528060008152506107de565b509050806105eb5747600080549050600160149054906101000a900460ff1660018111156105ad576105ac611327565b5b6040517f584327aa0000000000000000000000000000000000000000000000000000000081526004016105e293929190611068565b60405180910390fd5b60018060146101000a81548160ff021916908360018111156106105761060f611327565b5b021790555060007f000000000000000000000000000000000000000000000000000000000000000073ffffffffffffffffffffffffffffffffffffffff16635d3b1d307f00000000000000000000000000000000000000000000000000000000000000007f000000000000000000000000000000000000000000000000000000000000000060037f000000000000000000000000000000000000000000000000000000000000000060016040518663ffffffff1660e01b81526004016106da959493929190610fdf565b602060405180830381600087803b1580156106f457600080fd5b505af1158015610708573d6000803e3d6000fd5b505050506040513d601f19601f8201168201806040525081019061072c9190610df9565b9050807ff873073224475808a0009b9be5f6cd3c0f7d80780de5fabe36f70254d84a172660405160405180910390a250505050565b600080828154811061077657610775611356565b5b9060005260206000200160009054906101000a900473ffffffffffffffffffffffffffffffffffffffff169050919050565b6000600160009054906101000a900473ffffffffffffffffffffffffffffffffffffffff16905090565b60008080549050905090565b600060606000600160149054906101000a900460ff16600181111561080657610805611327565b5b6000600181111561081a57610819611327565b5b14905060007f00000000000000000000000000000000000000000000000000000000000000006002544261084e9190611148565b101590506000806000805490501190506000804711905083801561086f5750825b80156108785750805b80156108815750815b955050505050915091565b60007f0000000000000000000000000000000000000000000000000000000000000000905090565b6000600361ffff16905090565b6000600163ffffffff16905090565b60008080549050826000815181106108eb576108ea611356565b5b60200260200101516108fd9190611298565b9050600080828154811061091457610913611356565b5b9060005260206000200160009054906101000a900473ffffffffffffffffffffffffffffffffffffffff16905080600160006101000a81548173ffffffffffffffffffffffffffffffffffffffff021916908373ffffffffffffffffffffffffffffffffffffffff1602179055506000600160146101000a81548160ff021916908360018111156109a8576109a7611327565b5b0217905550600067ffffffffffffffff8111156109c8576109c7611385565b5b6040519080825280602002602001820160405280156109f65781602001602082028036833780820191505090505b5060009080519060200190610a0c929190610b01565b504260028190555060008173ffffffffffffffffffffffffffffffffffffffff1647604051610a3a90610f56565b60006040518083038185875af1925050503d8060008114610a77576040519150601f19603f3d011682016040523d82523d6000602084013e610a7c565b606091505b5050905080610ab7576040517fa1d04b3900000000000000000000000000000000000000000000000000000000815260040160405180910390fd5b8173ffffffffffffffffffffffffffffffffffffffff167f5b690ec4a06fe979403046eaeea5b3ce38524683c3001f662c8b5a829632f7df60405160405180910390a25050505050565b828054828255906000526020600020908101928215610b7a579160200282015b82811115610b795782518260006101000a81548173ffffffffffffffffffffffffffffffffffffffff021916908373ffffffffffffffffffffffffffffffffffffffff16021790555091602001919060010190610b21565b5b509050610b879190610b8b565b5090565b5b80821115610ba4576000816000905550600101610b8c565b5090565b6000610bbb610bb6846110c4565b61109f565b90508083825260208201905082856020860282011115610bde57610bdd6113be565b5b60005b85811015610c0e5781610bf48882610d0c565b845260208401935060208301925050600181019050610be1565b5050509392505050565b6000610c2b610c26846110f0565b61109f565b905082815260208101848484011115610c4757610c466113c3565b5b610c52848285611225565b509392505050565b600082601f830112610c6f57610c6e6113b9565b5b8135610c7f848260208601610ba8565b91505092915050565b60008083601f840112610c9e57610c9d6113b9565b5b8235905067ffffffffffffffff811115610cbb57610cba6113b4565b5b602083019150836001820283011115610cd757610cd66113be565b5b9250929050565b600082601f830112610cf357610cf26113b9565b5b8135610d03848260208601610c18565b91505092915050565b600081359050610d1b816113fa565b92915050565b600081519050610d30816113fa565b92915050565b60008060208385031215610d4d57610d4c6113cd565b5b600083013567ffffffffffffffff811115610d6b57610d6a6113c8565b5b610d7785828601610c88565b92509250509250929050565b600060208284031215610d9957610d986113cd565b5b600082013567ffffffffffffffff811115610db757610db66113c8565b5b610dc384828501610cde565b91505092915050565b600060208284031215610de257610de16113cd565b5b6000610df084828501610d0c565b91505092915050565b600060208284031215610e0f57610e0e6113cd565b5b6000610e1d84828501610d21565b91505092915050565b60008060408385031215610e3d57610e3c6113cd565b5b6000610e4b85828601610d0c565b925050602083013567ffffffffffffffff811115610e6c57610e6b6113c8565b5b610e7885828601610c5a565b9150509250929050565b610e8b8161117c565b82525050565b610e9a8161118e565b82525050565b610ea98161119a565b82525050565b6000610eba82611121565b610ec4818561112c565b9350610ed4818560208601611234565b610edd816113d2565b840191505092915050565b610ef181611213565b82525050565b6000610f0460008361113d565b9150610f0f826113e3565b600082019050919050565b610f23816111b7565b82525050565b610f32816111e5565b82525050565b610f41816111ef565b82525050565b610f50816111ff565b82525050565b6000610f6182610ef7565b9150819050919050565b6000602082019050610f806000830184610e82565b92915050565b6000604082019050610f9b6000830185610e82565b610fa86020830184610e82565b9392505050565b6000604082019050610fc46000830185610e91565b8181036020830152610fd68184610eaf565b90509392505050565b600060a082019050610ff46000830188610ea0565b6110016020830187610f47565b61100e6040830186610f1a565b61101b6060830185610f38565b6110286080830184610f38565b9695505050505050565b60006020820190506110476000830184610ee8565b92915050565b60006020820190506110626000830184610f29565b92915050565b600060608201905061107d6000830186610f29565b61108a6020830185610f29565b6110976040830184610f29565b949350505050565b60006110a96110ba565b90506110b58282611267565b919050565b6000604051905090565b600067ffffffffffffffff8211156110df576110de611385565b5b602082029050602081019050919050565b600067ffffffffffffffff82111561110b5761110a611385565b5b611114826113d2565b9050602081019050919050565b600081519050919050565b600082825260208201905092915050565b600081905092915050565b6000611153826111e5565b915061115e836111e5565b925082821015611171576111706112c9565b5b828203905092915050565b6000611187826111c5565b9050919050565b60008115159050919050565b6000819050919050565b60008190506111b2826113e6565b919050565b600061ffff82169050919050565b600073ffffffffffffffffffffffffffffffffffffffff82169050919050565b6000819050919050565b600063ffffffff82169050919050565b600067ffffffffffffffff82169050919050565b600061121e826111a4565b9050919050565b82818337600083830152505050565b60005b83811015611252578082015181840152602081019050611237565b83811115611261576000848401525b50505050565b611270826113d2565b810181811067ffffffffffffffff8211171561128f5761128e611385565b5b80604052505050565b60006112a3826111e5565b91506112ae836111e5565b9250826112be576112bd6112f8565b5b828206905092915050565b7f4e487b7100000000000000000000000000000000000000000000000000000000600052601160045260246000fd5b7f4e487b7100000000000000000000000000000000000000000000000000000000600052601260045260246000fd5b7f4e487b7100000000000000000000000000000000000000000000000000000000600052602160045260246000fd5b7f4e487b7100000000000000000000000000000000000000000000000000000000600052603260045260246000fd5b7f4e487b7100000000000000000000000000000000000000000000000000000000600052604160045260246000fd5b600080fd5b600080fd5b600080fd5b600080fd5b600080fd5b600080fd5b6000601f19601f8301169050919050565b50565b600281106113f7576113f6611327565b5b50565b611403816111e5565b811461140e57600080fd5b5056fea2646970667358221220a9b3cecad49d7d7adba62e37cfed899fe3380d335da42bd783207ff0b850fb4a64736f6c63430008070033",
  "linkReferences": {},
  "deployedLinkReferences": {}
}